:020000040000FA
:10000000707700206D020000710200007302000092
:100010007502000077020000790200000000000075
:100020000000000000000000000000007B02000053
:100030007D020000000000007F020000AD02000011
:1000400083020000830200008302000039260000C2
:1000500083020000095A00008302000083020000AE
:10006000830200008302000083020000830200007C
:10007000830200008302000083020000830200006C
:10008000830200008302000083020000830200005C
:10009000830200002158000083020000395800004C
:1000A000830200008302000083020000830200003C
:1000B000830200008302000083020000830200002C
:1000C0008302000083020000830200000159000047
:1000D000830200008302000083020000830200000C
:1000E00083020000830200008302000083020000FC
:1000F00083020000830200008302000083020000EC
:1001000083020000830200008302000083020000DB
:1001100083020000830200008302000083020000CB
:1001200083020000830200008302000083020000BB
:1001300083020000830200008302000083020000AB
:1001400000000000000000000000000000000000AF
:1001500083020000830200000D59000083020000AA
:10016000000000000000000000000000000000008F
:10017000000000000000000000000000000000007F
:10018000000000000000000000000000000000006F
:10019000000000000000000000000000000000005F
:1001A000000000000000000000000000000000004F
:1001B000830200008302000083020000830200002B
:1001C000830200008302000083020000830200001B
:1001D000830200008302000083020000830200000B
:1001E00083020000830200008302000083020000FB
:1001F00083020000830200008302000083020000EB
:10020000830200008302000083020000000000005F
:1002100083020000830200008302000083020000CA
:1002200083020000830200008302000083020000BA
:1002300083020000830200008302000083020000AA
:10024000830200008302000083020000830200009A
:10025000830200008302000083020000830200008A
:1002600083020000830200008302000000F00AB84D
:10027000FEE7FEE7FEE7FEE7FEE7FEE7FEE7FEE756
:10028000FEE7FEE7DFF810D000F044F80048004732
:1002900025670000AFF30080707700200138FDD1A2
:1002A0007047000072B6704762B6704772B62DE9AB
:1002B000F00F10480168C1F800D001B504F000FD4E
:1002C000BDE801400168D1F800D0BDE8F00F62B68A
:1002D000704708480268D2F800D0BDE8F00F0FBCA4
:1002E0005DF804CB5DF804EB5DF804EB02BC62B68C
:1002F000704700005800002072B6704762B6704721
:10030000EFF3108072B6704780F31088704730BFEB
:1003100070470000064C074D06E0E06840F001031E
:1003200094E8070098471034AC42F6D3FFF7AEFFCD
:10033000F0E9000010EA000030B58C1810F8012B2D
:1003400012F00F0301D110F8013B120906D110F889
:10035000012B03E010F8015B01F8015B5B1EF9D192
:1003600001E001F8013B521EFBD1A142E6D300207F
:1003700030BD000070B504460D46164609480078A9
:10038000032803D007480078052804D10020064937
:10039000087003F04FF932462946204606F0A0FACD
:1003A00070BD0000C0000020A400002010B504466D
:1003B00004E045F6C240FFF771FF641E002CF8D13F
:1003C00010BD000010B54248006840F01A004049D6
:1003D000086000BF3F48006800F01A001A28F9D1F1
:1003E0003D48006820F010003B4908603B48006829
:1003F00040F00800394908603948006840F02000A2
:10040000374908603448001D006820F470203249E4
:10041000091D08603348006820F010003149086069
:100420003148006820F008002F4908602F48006814
:1004300020F020002D4908602A482030006820F074
:10044000100028492031086027482030006840F01B
:10045000080025492031086024482030006840F019
:1004600020002249203108601B480C38006840F009
:10047000100019490C39086018480C38006820F041
:10048000080016490C39086015480C38006820F03F
:10049000200013490C39086005F0B6FE14480068C6
:1004A00020F00200124908600846406920F0F00080
:1004B00048614B200866602048660846806820F046
:1004C000020088600846006840F00200086010BD25
:1004D00008E60F4008EA0F40284502402875004012
:1004E0002855004000440240007400400054004081
:1004F0000080034010B502230A4CA36200BF094BE1
:100500005B6803F00203002BF9D0064B9B6E03805F
:10051000044B9B6E0B80044B1B6C13700223014C2D
:10052000E36010BD00800340004002402DE9F05F11
:1005300004460D4691461E460A9F4FF0000BB246F8
:10054000781E00FB06F83F48B0F9000084420BDA41
:10055000E81B401C3C49B1F90010884204DAA0199C
:10056000002801DD002D01DABDE8F09F3548B0F923
:100570000000864204DC3448B0F90000874200DD08
:10058000F2E7A019401E2F49B1F90010884209DB9B
:10059000A0192C490988401A0FFA80FB29480088C5
:1005A000001B06B2E81B401C002805DA781B401E21
:1005B00000FB1A88681C07B2002C07DA301906B253
:1005C00060420FFA80FBA8EB040800241E48B0F933
:1005D0000000854209DB1C480088281A401C381A94
:1005E00007B219480088401E05B2EBB204EB060CB6
:1005F000ACF1010C0CF0FF02A5EB070C0CF1010CA7
:100600000CF0FF01E0B206F023F9002516E000240B
:100610000CE039F81810081206F0EAF919F8180079
:1006200006F0E6F908F10108601C04B2B442F0DB00
:10063000D844022000FB1A88681C05B2BD42E6DBE4
:1006400000BF91E724000020260000202DE9FF4F85
:1006500081B006460F46DDE90EB4062000FB0460BB
:10066000401E3B49B1F90010884214DA082000FB13
:100670000470401E3749B1F9001088420BDA062099
:1006800000FB0460401E002805D4082000FB047015
:10069000401E002802D505B0BDE8F08F4FF0080CD1
:1006A0000CFB047CACF1010C0CF0FF034FF0060CCA
:1006B0000CFB046CACF1010C0CF0FF02F9B2F0B2CF
:1006C00006F0C6F84FF001084FF0000A3BE00020AA
:1006D00000902FE04FF000091DE0039800EB800030
:1006E00048441D49085C00EA080048B1002504E0C0
:1006F000049988B206F0A2F86D1CA542F8DB08E068
:10070000002504E01FFA8BF006F098F86D1CA54256
:10071000F8DB09F10109B9F1050FDEDB002504E082
:100720001FFA8BF006F08AF86D1CA542F8DB0098E2
:10073000401C00900098A042CCDB4FEA48604FEA92
:1007400010680AF1010ABAF1080FC0DB00BFA2E786
:100750002400002026000020386A00002DE9FC5FFC
:1007600006460F4693469946DDE90CA43648B0F993
:100770000000864210DA3548B0F9000087420BDAF3
:10078000062000FB0460401E002805D4082000FB62
:100790000470401E002801D5BDE8FC9F00254FE0F5
:1007A000052D02D10020019005E00BEB8B002844C1
:1007B0002749085C01904FF000083DE0019800F0E7
:1007C0000100C8B1012C09D11FFA89F207EB080317
:1007D00019B2731918B200F0CDF828E01FFA89F0A9
:1007E00008FB047211B205FB0462009010B22346AC
:1007F000224600F037F91AE0CA4518D0012C09D179
:100800001FFA8AF207EB080319B2731918B200F045
:10081000B1F80CE01FFA8AF008FB047211B205FB74
:100820000462009010B22346224600F01BF90198A2
:100830004010019008F10108B8F1080FBEDB6D1CF3
:10084000062DADDB00BFA7E7240000202600002016
:10085000386A000070B505460E461446A3B2301F34
:1008600001B20922284600F047F8A3B2291F08B2B6
:100870000922314600F002F870BD00002DE9F04772
:1008800004460D4616461F464FEA272807F0FF0983
:100890001748B0F90000844204DA1648B0F90000A5
:1008A000854201DBBDE8F087A019401E1049B1F96F
:1008B0000010884203DB0E480088001B06B2EBB232
:1008C00004EB060CACF1010C0CF0FF02E9B2E0B253
:1008D00005F0BEFF05E0404606F08AF8484606F0FF
:1008E00087F8301EA6F101010EB2F4D100BFD9E79E
:1008F00024000020260000202DE9F04705460C4684
:1009000016461F464FEA272807F0FF091748B0F997
:100910000000854204DA1648B0F90000844201DB89
:10092000BDE8F087A019401E1149B1F900108842B6
:1009300003DB0F480088001B06B204EB060CACF189
:10094000010C0CF0FF03EAB2E1B2E8B205F080FF5F
:1009500005E0404606F04CF8484606F049F8301EDF
:10096000A6F101010EB2F4D100BFD9E724000020A6
:10097000260000202DE9F04104460D461646002CC5
:100980000BDB0C48B0F90000844206DA002D04DBD2
:100990000948B0F90000854201DBBDE8F081EBB207
:1009A000E2B2E9B2E0B205F053FF304605F046FF8F
:1009B00000BFF2E724000020260000202DE9FC41C2
:1009C00004460E461546984600270C2E02DD0020F0
:1009D000BDE8FC8117E001200021CDE900102A7854
:1009E00006EB86035B0019B204EB44035B0018B20C
:1009F0004346FFF72BFE6D1C601C04B2142C01DD76
:100A00003846E5E77F1C28780028E4D13846DFE740
:100A10002DE9FC4104460E461546984600270C2E4B
:100A200002DD0020BDE8FC8117E00120811ECDE938
:100A300000102A7806EB86035B0019B204EB44032E
:100A40005B0018B24346FFF701FE6D1C601C04B248
:100A5000142C01DD3846E5E77F1C28780028E4D116
:100A60003846DFE72DE9F04704460D4616461F4697
:100A7000DDF820804FEA282908F0FF0A2248B0F963
:100A80000000844204DA2148B0F90000854201DB0D
:100A9000BDE8F087A019401E1B49B1F9001088423B
:100AA00003DB19480088001B06B2E819401E1749ED
:100AB000B1F90010884203DB14480088401B07B2DC
:100AC00005EB070CACF1010C0CF0FF0304EB060C7A
:100AD000ACF1010C0CF0FF02E9B2E0B205F0B8FE97
:100AE0003D460DE0344607E0484605F081FF50469C
:100AF00005F07EFF601E04B2002CF5DC681E05B216
:100B0000002DEFDC00BFC3E72400002026000020FA
:100B100038B5044605480094B0F900300448B0F9EF
:100B2000002000210846FFF79DFF38BD2600002069
:100B30002400002010B5012003F092FE10BD2DE925
:100B4000F04705460E4614461F46DDF82090C5EBDB
:100B5000C50030441FFA80F84FF0FF333A460FFAD1
:100B600088F120B2FFF72AFF20441FFA80FA41469D
:100B7000504600F0C1F84FF0FF31484600F06AF8E7
:100B8000BDE8F0872DE9F04705460E4614461F469E
:100B9000DDF82090C5EBC50030441FFA80F84FF017
:100BA000FF333A460FFA88F120B2FFF707FF2044DF
:100BB0001FFA80FA4146504600F09EF84FF0FF3190
:100BC000484600F003F8BDE8F08700007CB5054614
:100BD0000C4600201A490860284605F04BFD00210C
:100BE0001848174A1268815423460246164800885E
:100BF00001B21648008800B2FFF7E0FE1348006813
:100C00000F4909680844114908600846006814281B
:100C100015D914200860012000210B4ACDE90010ED
:100C2000128802EB8202520011B2084A128802EBCB
:100C30004202520010B2064B2A22FFF707FD7CBD8C
:100C400028000020000200201C00002018000020C6
:100C500000F8FFFF7CB505460C4600201A490860E5
:100C6000284605F02DFD00211848174A12688154C6
:100C7000234602461648008801B21648008800B292
:100C8000FFF79CFE134800680F49096808441149A2
:100C9000086008460068142815D91420086001204F
:100CA00000210B4ACDE90010128802EB82025200AB
:100CB00011B2084A128802EB4202520010B2064BEF
:100CC0002A22FFF7C3FC7CBD280000200002002080
:100CD0001C0000201800002000F8FFFF10B50121C3
:100CE000044802F09DFCFFF725FF0020FFF710FFEE
:100CF00010BD000040000020142801D80C2900D9A4
:100D00007047034A1060034A116000BFF8E7000013
:100D1000180000201C00002030B50346114C124D75
:100D20002C60124C247864B940290ADAC1F13F04DE
:100D3000802505FB0434A0B20B4C246824F8102055
:100D40000FE00A4C2478012C0BD13F2909DDC1F1B9
:100D50007F04802505FB0434A0B2034C246824F8EA
:100D6000102030BD982B002000010020FC00002046
:100D70002DE9F04F04460D469046484FDFF820A17C
:100D8000CAF8007021462846E7187F1E3EB2099F28
:100D9000EF1B7F1C3AB27F2901DDBDE8F08F002EEA
:100DA00000DAFAE7802B02DC099F802F00DDF4E7F0
:100DB0003C4F3F78BFBB002800DAEEE73F2A00DD5A
:100DC000EBE77F2E00DD7F26002A00DA00220029D3
:100DD00000DA00213F2800DD3F20D7B220E001F0FB
:100DE000FF0A17E0C7F13F0B4FF0800E0EFB0BAC74
:100DF000AAEB040BA5EB070E03FB0EB938F819B0EC
:100E0000DFF89CE0DEF800E02EF81CB00AF1010BE0
:100E10000BF0FF0AB245E5DD07F1010B0BF0FF0710
:100E20008742DCDD38E0FFE7402800DAB5E77F2ABB
:100E300000DDB2E77F2E00DD7F26402A00DA402267
:100E4000002900DA00217F2800DD7F20D7B220E0D2
:100E500001F0FF0A17E0C7F17F0B4FF0800E0EFB89
:100E60000BACAAEB040BA5EB070E03FB0EB938F88D
:100E700019B0DFF82CE0DEF800E02EF81CB00AF123
:100E8000010B0BF0FF0AB245E5DD07F1010B0BF09A
:100E9000FF078742DCDD00BF00BF7EE7982B002004
:100EA00000010020FC0000202DE9F04F04460D4613
:100EB00016461F46DFF86081DFF860A1CAF800809F
:100EC0002246284604EB0708A8F101080FFA88FC1F
:100ED000DDF82480A5EB080808F101080FFA88F373
:100EE0007F2A01DDBDE8F08FBCF1000F00DAF9E7E1
:100EF000802F04DCDDF82480B8F1800F00DDF1E7FD
:100F0000DFF81C8198F80080B8F1000F40D100286C
:100F100000DAE7E73F2B00DDE4E7BCF17F0F01DDFE
:100F20004FF07F0C002B00DA0023002A00DA0022A9
:100F30003F2800DD3F2003F0FF0826E002F0FF0A13
:100F40001DE0C8F13F0B4FF0800E0EFB0BA9AAEB82
:100F5000040BA5EB080E07FB0EB136F811B04FF6E7
:100F6000FF7EF34507D036F811B0DFF8B0E0DEF8C9
:100F700000E02EF819B00AF1010B0BF0FF0AE24570
:100F8000DFDD08F1010B0BF0FF088045D6DD40E006
:100F9000402800DAA6E77F2B00DDA3E7BCF17F0F36
:100FA00001DD4FF07F0C402B00DA4023002A00DAED
:100FB00000227F2800DD7F2003F0FF0826E002F0FA
:100FC000FF0A1DE0C8F17F0B4FF0800E0EFB0BA94E
:100FD000AAEB040BA5EB080E07FB0EB136F811B017
:100FE0004FF6FF7EF34507D036F811B0DFF82CE05E
:100FF000DEF800E02EF819B00AF1010B0BF0FF0A41
:10100000E245DFDD08F1010B0BF0FF088045D6DD7E
:1010100000BF00BF66E70000982B00200001002001
:10102000FC0000202DE9F04106460F4614461D46FF
:10103000DDF81880A3B22A463946304600F01DF983
:10104000A3B207EB0800401E01B22A46304600F06A
:1010500014F9A3B242463946304600F06EF9A3B205
:101060007119491E08B24246394600F066F9BDE8DA
:10107000F08100002DE9F84F06460F46924699464A
:101080000A9C802E0DDA802F0BDA062000FB04600C
:10109000401E002805D4082000FB0470401E0028D4
:1010A00001D5BDE8F88F002530E0052D02D14FF0C5
:1010B000000B05E00AEB8A002844164911F800B03D
:1010C0004FF000081EE00BF00100B8B1012C09D16F
:1010D0001FFA89F207EB080319B2731918B2FFF768
:1010E0001BFE0BE01FFA89F208FB047319B205FB23
:1010F000046318B22346009400F02CF94FEA6B0BFE
:1011000008F10108B8F1080FDDDB6D1C062DCCDB02
:1011100000BFC6E7F3E400002DE9FC4F06460F468A
:1011200093469946DDE90BA4802E0DDA802F0BDA69
:10113000062000FB0460401E002805D4082000FBA8
:101140000470401E002801D5BDE8FC8F00254DE04D
:10115000052D02D10020019005E00BEB8B00284407
:101160002449085C01904FF000083BE0019800F032
:101170000100C0B1012C09D11FFA89F207EB080365
:1011800019B2731918B2FFF7C7FD26E01FFA89F2EA
:1011900008FB047319B205FB046318B223460094DC
:1011A00000F0D8F819E0CA4517D0012C09D11FFA70
:1011B0008AF207EB080319B2731918B2FFF7ACFDF6
:1011C0000BE01FFA8AF208FB047319B205FB0463F3
:1011D00018B22346009400F0BDF801984010019029
:1011E00008F10108B8F1080FC0DB6D1C062DAFDB5C
:1011F00000BFA9E7F3E400002DE9F84F04460D46CF
:10120000904605260527A01B0FFA80F9E81B0FFA68
:1012100080FA700000F1010B7800401C0090B9F1D9
:10122000000F04DA4FF00009A0190FFA80FBA01993
:101230007F2803DDC9F180000FFA80FBBAF1000FAF
:1012400004DA4FF0000AE81900B20090E819752896
:1012500003DDCAF1760000B200901FFA88F35A4607
:101260002946484600F009F81FFA88F351462046FF
:10127000009A00F062F8BDE8F88FF8B506460F4610
:1012800014461D46012023462A4639460090304622
:1012900000F060F8F8BD2DE9F84104460E46154609
:1012A000984600270C2E02DD0020BDE8F88115E0ED
:1012B000012000902A7806EB86035B0019B204EB4C
:1012C00044035B0018B24346FFF7D4FE6D1C601C5C
:1012D00004B2142C01DD3846E7E77F1C287800288B
:1012E000E6D13846E1E72DE9FC4104460E461546B5
:1012F000984600270C2E02DD0020BDE8FC8117E097
:101300000120811ECDE900102A7806EB86035B00E0
:1013100019B204EB44035B0018B24346FFF7FCFE2E
:101320006D1C601C04B2142C01DD3846E5E77F1CFF
:1013300028780028E4D13846DFE7F8B506460F469E
:1013400014461D4601232A4639463046009400F0D3
:1013500001F8F8BD2DE9F04F04460D469046994638
:10136000DDF824C0434FDFF810A1CAF8007005EB88
:101370000C077F1E3DB22146284604EB09077F1E5D
:101380003BB2A5EB0C077F1C3AB27F2901DDBDE81B
:10139000F08F002B00DAFAE7B9F1800F02DCBCF124
:1013A000800F00DDF3E7354F3F787FBB002800DA80
:1013B000EDE73F2A00DDEAE77F2B00DD7F23002AEF
:1013C00000DA0022002900DA00213F2800DD3F205A
:1013D000D7B218E001F0FF0A0FE0C7F13F0B4FF062
:1013E000800E0EFB0BA6DFF890B0DBF800B02BF8F8
:1013F00016800AF1010B0BF0FF0A9A45EDDD07F1AB
:10140000010B0BF0FF078742E4DD30E0FFE74028E7
:1014100000DABCE77F2A00DDB9E77F2B00DD7F2300
:10142000402A00DA4022002900DA00217F2800DD6E
:101430007F20D7B218E001F0FF0A0FE0C7F17F0B61
:101440004FF0800E0EFB0BA6DFF82CB0DBF800B0DF
:101450002BF816800AF1010B0BF0FF0A9A45EDDD1F
:1014600007F1010B0BF0FF078742E4DD00BF00BF6F
:101470008DE70000982B002000010020FC000020D8
:1014800018B50446802003462246002100900846F5
:10149000FFF760FF18BD2DE9F04705460E461446DC
:1014A0001F46DDF82090C5EBC50030441FFA80F8D8
:1014B0004FF0FF333A460FFA88F120B2FFF7EBFE08
:1014C00020441FFA80FA4146504600F0AFF84FF032
:1014D000FF31484600F026F8BDE8F0872DE9F047D7
:1014E00005460E4614461F46DDF82090C5EBC500A4
:1014F00030441FFA80F84FF0FF333A460FFA88F174
:1015000020B2FFF7C8FE20441FFA80FA4146504639
:1015100000F08CF84FF0FF31484600F045F8BDE888
:10152000F087000038B505460C46002019490860D0
:10153000284600F0AFF800201749164A1268885470
:1015400023460A461548008801B21548008800B2B3
:10155000FFF7A1FE124800680E49096808441049C7
:10156000086008460068142813D914200860012078
:101570000A4A0090128802EB8202520011B2084A15
:10158000128802EB4202520010B2064B2A22FFF7E9
:1015900071FD38BD04010020986B0020F800002088
:1015A000F400002000F8FFFF38B505460C46002087
:1015B00019490860284600F093F800201749164A98
:1015C0001268885423460A461548008801B2154817
:1015D000008800B2FFF75FFE124800680E490968F4
:1015E00008441049086008460068142813D91420DC
:1015F000086001200A4A0090128802EB8202520021
:1016000011B2084A128802EB4202520010B2064B95
:101610002A22FFF72FFD38BD04010020986B00201F
:10162000F8000020F400002000F8FFFF142801D883
:101630000C2900D97047034A1060034A116000BFAB
:10164000F8E70000F4000020F800002030B5044660
:101650000A2C0AD30A20B4FBF0F52846FFF7F6FF60
:101660000A20B4FBF0F100FB114404F13000C1B2D8
:101670000648074A12688154054800680B2804D2BE
:1016800003480068401C0249086030BD986B002088
:101690000401002010B50446B4F57A7F01D340F26E
:1016A000E734642C03D300200B4908600FE00A2CB8
:1016B00006D320200949087001200749086006E088
:1016C000202006490870487002200349086020461F
:1016D000FFF7BCFF10BD000004010020986B002044
:1016E00010B5044642F20F70844200D90446B4F5A6
:1016F0007A7F03D30020114908601AE0642C06D3D6
:1017000020200F49087001200C49086011E00A2CC4
:1017100007D320200A490870487002200749086052
:1017200007E02020064908704870887003200349AC
:1017300008602046FFF78AFF10BD0000040100206A
:10174000986B0020002103E000220280801C491CCD
:10175000B1F5005FF8D3A0F5804070472F490968C4
:1017600041F008012D4A116000BF2D49096801F0C0
:1017700008010029F9D02B49096821F04001294AC4
:101780001160111D096821F07061121D1160264958
:10179000096821F04001244A116023492031096879
:1017A00021F04001204A203211601E490C3909689D
:1017B00041F040011B4A0C3A11601A491839096876
:1017C00041F04001174A183A11601749091D09688C
:1017D00021F04001144A121D1160111D096841F0E9
:1017E0004001121D116040210F4A1C3211600E4948
:1017F0001031096841F040010B4A103211600B4969
:10180000096860F35F71094A11600821084A116094
:1018100008490968084A11607047000008E60F404F
:1018200008EA0F40287500400074004000E400E022
:1018300000E100E0007100406400002032490968C6
:1018400041F00801304A116000BF3049096801F0D9
:1018500008010029F9D02E492E4A1160FF21121DDE
:101860001160111D096821F08001121D1160111D08
:10187000096821F07041121D11602749096821F0A3
:101880008001254A116024492031096821F0800136
:10189000214A203211601F49091F096841F0800167
:1018A0001C4A121F11601B491039096841F0800160
:1018B000184A103A11601849091D096821F0800181
:1018C000154A121D1160111D096841F08001121D99
:1018D00011608021104A1C3211600F4910310968D3
:1018E00041F080010C4A103211600C49096860F324
:1018F0005F710A4A11600821094A116009490968A3
:10190000094A11607047000008E60F4008EA0F40DE
:101910004B434F4C207500400074004000E400E051
:1019200000E100E0007200406800002010B50121D5
:101930000B4801F075FE0A200A4908800846B0F9F4
:101940000000094908804FF47A7149F6404002F0DE
:10195000BFFB4FF47A7149F6404002F043FB10BDE3
:101960009C000020A2000020A000002070B50446CA
:10197000257B04E002F02EFD00F003002073207BA5
:10198000A842F7D070BD000038B503204D4908705B
:1019900000204D49087001204C49087001E001F019
:1019A000BDFE4B4800780028F9D14A48007800284D
:1019B000F5D10820484908704848B0F90000484966
:1019C0000880002045490880464801F011FF0020AA
:1019D000FFF79EF8434801F0EDFE01F0ABFE044630
:1019E00002F01EFD00F074FA0521002003F09EF9BC
:1019F000032280213C4801F02DFD47E0684601F0BC
:101A000003FABDF8000000B238490880BDF80200B2
:101A100000B237490880334801F0EAFE0022354819
:101A2000B0F900103448B0F90000FEF713FFBDF81C
:101A3000022011B2BDF8002010B2304AFEF70AFFB2
:101A400001F044FA274801F0B5FEBDF8000000B2ED
:101A500029490880BDF8020000B22649088000F03C
:101A60002DFE98B902228021254801F0F3FC1D4883
:101A700001F0BEFE214B23A205210620FEF79EFFAA
:101A800001F024FA174801F095FE05E020480068AF
:101A9000204909688842B1D300BF00200B49087073
:101AA00009200D4908700020064908701A4800787E
:101AB00020B903228021194801F0CCFC01F0BAFDC5
:101AC00038BD0000C0000020C1000020C20000207E
:101AD000C40000203E010020EB000020A2000020F6
:101AE000A000002040000020411E0000E000002077
:101AF000E2000020E6000020E400002000F8FFFFE4
:101B0000C93E000047616D65204F76657200000098
:101B1000B8000020B4000020A40000201D27000011
:101B200010B50020FEF7F4FF002008490870084AAD
:101B30000849881EFEF7DEFC074A0849881EFEF7A2
:101B4000D9FC0121064801F06BFD10BDC100002049
:101B5000E8000020DE000020DA000020D000002095
:101B6000080100201BE00E48006841F270718842B5
:101B700015D20C48008885B20B48008884B2162024
:101B800095FBF0F009490870142094FBF0F04870C0
:101B900007480068401C0649086001F0BFFDE2E705
:101BA000B8000020E0000020E2000020E900002052
:101BB00014010020F0B589B000BF02F00BFC062133
:101BC00090FBF1F201FB1200059002F003FC0621EC
:101BD00090FBF1F201FB12010691059800EB400029
:101BE000894901EB0011069851F830000028E4D132
:101BF00002F0F0FBADF81000BDF8100044F208113F
:101C00000843ADF8100002F0E5FB00F003008DF88A
:101C10001C00052008900020ADF81E0004A90598BE
:101C200000EB4000784A02EB0012069842F83010B0
:101C3000764801F0DDFD762106984843062190FBA9
:101C4000F1F006B20598C00190FBF1F007B2BDF8C3
:101C5000100013231522314600903846FEF702FF8C
:101C60006A4801F0A7FD4FF4FA7001F04DFD90E0D5
:101C700004A800F0F5F900B2ADF81E00BDF81E0092
:101C800038B102228021624801F0E4FB00F096FFA7
:101C90008EE00898002802DC00F07EFA88E000F070
:101CA0000DFD00B984E0059804B2BDF8180005B236
:101CB00001E001F033FD02AA03A904A800F02EF907
:101CC0000028F6D1BDF90C1001EB41014E4A02EBA0
:101CD0000111BDF9082001EBC201081D01F088FDCA
:101CE000BDF90C000590BDF90810069104A90598EE
:101CF00000EB4000444A02EB0012069842F8301014
:101D0000002004EB4401404A02EB011141F8350088
:101D1000BDF90C1001EB410102EB0111BDF90820E6
:101D200001EBC201081D01F045FD384801F060FDDE
:101D300076206843062190FBF1F006B2E00190FBAB
:101D4000F1F007B2002013231522314600903846E7
:101D5000FEF788FE762106984843062190FBF1F0B5
:101D600006B20598C00190FBF1F007B2BDF8100073
:101D700013231522314600903846FEF773FE2348A0
:101D800001F018FD4FF4FA7001F0BEFC0898401EF7
:101D900008902048006820490968884208D21F48F6
:101DA0000078032804D100F089FC00287FF460AF9C
:101DB00000BF00F035F80021059800EB4000124A02
:101DC00002EB0012069842F83010104801F010FDA6
:101DD000762106984843062190FBF1F006B205985B
:101DE000C00190FBF1F007B2002013231522314609
:101DF00000903846FEF736FE044801F0DBFC01F0A7
:101E000019FC09B0F0BD000028250020400000208A
:101E1000D5260000B8000020B4000020C00000203B
:101E200010B5FEF76DFA044604480088401E0349C9
:101E300008802046FEF768FA10BD00008A000020E6
:101E400070B51EE015480088D8B900F037FC0028AE
:101E500017DD02F0BFFA052190FBF1F201FB120041
:101E6000451C002407E000F023F8032264210C48FD
:101E700001F0F0FA641CAC4203DA08480088242818
:101E8000F1DB0848006808490968884203D207481E
:101E900000780128D6D001F0CDFB70BD8A0000206B
:101EA000B51B0000B8000020B4000020C2000020D4
:101EB00010B5FEF725FA044604480088401C034983
:101EC00008802046FEF720FA10BD00008A0000209E
:101ED00070B500200F490880002418E0002513E0A9
:101EE00004EB44010C4A02EB011101EBC501081D92
:101EF000012101F095FB002004EB4401064A02EBAE
:101F0000011141F835006D1C062DE9DB641C062C1F
:101F1000E4DB70BD8A000020282500202DE9F04177
:101F200004460F469046207B30B1012828D0022875
:101F300049D003286AD16AE0A068002805DC204661
:101F4000FFF714FD0120BDE8F081A08805B22089CB
:101F5000401E06B205EB4500404901EB001050F869
:101F6000360020B12046FFF701FD0120EBE7A088F5
:101F700000B238802089401E00B2A8F8000069E055
:101F80006068002804DC2046FFF7F0FC0120DAE757
:101F9000A088401E05B2208906B205EB45002F49F6
:101FA00001EB001050F8360020B12046FFF7DEFCB0
:101FB0000120C8E7A088401E00B23880208900B206
:101FC000A8F8000046E06068052804DB2046FFF71B
:101FD000CDFC0120B7E7A088401C05B2208906B2DD
:101FE00005EB45001D4901EB001050F8360020B10B
:101FF0002046FFF7BBFC0120A5E7A088401C00B2EB
:102000003880208900B2A8F8000023E000BFA06853
:10201000052804DB2046FFF7A9FC012093E7A088F0
:1020200005B22089401C06B205EB45000B4901EBC7
:10203000001050F8360020B12046FFF797FC012031
:1020400081E7A08800B238802089401C00B2A8F83F
:10205000000000BF00BF002075E700002825002019
:102060002DE9F04F04462C48B0F90000DFF8ACB081
:10207000ABF800002A48B0F90000DFF8A8B0ABF8D0
:1020800000006068C0014FF0060B90FBFBF14FF0C1
:10209000760BA06800FB0BF04FF0060B90FBFBF2F9
:1020A0000B4601F11506571F02F1180CA1F10508A6
:1020B00001F11A09154602F1130A1848B0F9000097
:1020C000984211DB1548B0F90000B0420CDC15480D
:1020D000B0F90000604507DC1248B0F90000B842D2
:1020E00002DB0120BDE8F08F0C48B0F9000040454C
:1020F00010DB0A48B0F9000048450BDC0948B0F98C
:102100000000504506DC0748B0F90000A84201DB9A
:102110000120E7E70020E5E7E00000208C00002038
:10212000E20000208E00002000B50A2001F0ECFA49
:1021300008480068084908604020084908600748C6
:102140000C38006840F0400004490C39086001F088
:1021500071FA00BD00710040640000201C74004052
:1021600000B50A2001F0D0FA084800680849086064
:1021700080200849086007480C38006840F080005B
:1021800004490C39086001F055FA00BD00720040A6
:10219000680000201C74004010B5FEF7B1F804463A
:1021A00006480088002804DD04480088401E0349D2
:1021B00008802046FEF7A8F810BD0000520100205C
:1021C00010B503F04DFCFEF789FDFEF7FBF810BDDE
:1021D00010B5054801F0B6FA00200449086002482D
:1021E00001F078FA10BD00007C0100207801002089
:1021F00001480068704700007801002070B505466E
:102200000C460E4801F09EFA207888B12078401ED6
:1022100000EB40000A4901EB800207CA85E807008D
:102220002078401E2070054801F054FA012070BD4E
:10223000024801F04FFA0020F9E700007C0100207D
:10224000F071002010B51DE01420134948601348B8
:102250008860134811490862012008600420C88082
:10226000002088800FA048611248006888610A48F1
:1022700007C802F091F910480068401C0E49086038
:1022800001F04CFA0D48006841F270718842DBD3CE
:1022900001F0D0F910BD0000A46C0020B06C00204B
:1022A0003F0B000050736575646F436F756E743A31
:1022B00020000000C800002018010020B800002005
:1022C00030B585B001204749087075E04648006880
:1022D00030B9012044490860002002F0B9F805E057
:1022E000002041490860012002F0B2F83F48006830
:1022F000FFF728FA00203E490870002416E0FFF797
:1023000077FFC0B201900BE001A902A8FFF776FFAA
:102310009DF80800A04203D1049D284603F036FE34
:102320009DF804000028EFD1601CC4B2042CE6DB49
:10233000304801F007FA4020802300902B483F21CD
:1023400002680020FEF7F2F82A4801F0C3F9274896
:102350000068FFF7F7F9012025490870002416E00E
:10236000FFF746FFC0B201900BE001A902A8FFF7FA
:1023700045FF9DF80800A04203D1049D284603F0C4
:1023800005FE9DF804000028EFD1601CC4B2042CA7
:10239000E6DB184801F0D6F940208023009013486E
:1023A0007F2102680020FEF7C1F8124801F092F97F
:1023B000FFF70EFF01F0B2F90F4800680F490968F6
:1023C000884208D20E480078032804D00C480078D0
:1023D00005287FF47BAF00200249087001F02AF93C
:1023E00005B030BD3E01002070010020000100203A
:1023F000FC00002040000020B8000020B4000020B5
:10240000C000002008B505202A49087000202A498C
:10241000087001E001F082F92848007818B12848D6
:1024200000780028F6D101E001F078F9022280213D
:10243000244801F00FF80128F6D1234801F082F971
:102440000020FEF765FB40200346204A5F210090F4
:102450001F20FEF76BF841F2883001F055F940205B
:1024600003461A4A5F2100901F20FEF75FF81648C6
:1024700001F030F91648006816490968884216D2FA
:1024800000200C49087002F05BFC012280211248F8
:1024900000F0E0FF02228021104800F0DBFF084836
:1024A000007820B9032280210D4800F0D3FF01F00D
:1024B000C1F808BDC0000020C70000203E01002078
:1024C000A4000020C93E000040000020B36F0000BF
:1024D000B8000020B4000020C122000029540000F0
:1024E0001D27000070B503460C460021642500BF7F
:1024F00018E001EB410603EB860201EBC10604EB99
:10250000860090606E18566001261670334E066283
:1025100000268680C680324EC6611426068146811A
:102520004E1CF1B20429E4DB042118E001EB410662
:1025300003EB860201EBC10604EB860090606E1887
:10254000566001261670254E066200268680C680DB
:10255000244EC6611426068146814E1CF1B208291C
:10256000E4DB082119E001EB410603EB860201EBF5
:10257000C10604EB860090606E1856600226167045
:10258000194E066200268680C6804FF4FC6686815E
:102590000226068146814E1CF1B20C29E3DB0C2198
:1025A00019E001EB410603EB860201EBC10604EBE7
:1025B000860090606E18566001261670074E0662FF
:1025C00000268680C680094EC6610C26068112262A
:1025D00046814E1CF1B20F29E3DB70BDA90E00004D
:1025E000A39A00008397000055130000C39D0000CC
:1025F00070B501F069F8054600260E4801F0F8F8BC
:1026000049F640414EF6602001F0C4FD01F056FD50
:1026100006E001F059F80446661B0A2001F074F840
:10262000322EF6D301F040FD024801F0C3F801F06C
:1026300001F870BD9C00002010B51948006800F03A
:10264000400098B11648001F006820F0400014496F
:10265000091F08601348006810B1134800688047DC
:1026600002228021114800F0F5FE17E00C480068B6
:1026700000F0800090B10A48001F006820F0800040
:102680000749091F08600A48006810B10948006836
:10269000804702228021084800F0DCFE10BD0000C7
:1026A0001474004064000020500000202921000024
:1026B00068000020540000206121000001480088CB
:1026C0007047000052010020014800887047000058
:1026D0005001002070B500F0F7FF054600260E48B7
:1026E00001F086F84CF250314EF6602001F052FDB8
:1026F00001F0E4FC05E000F0E7FF0446661B01F092
:102700000DF8642EF7D301F0CFFC034801F052F826
:1027100000F090FF70BD00009C0000200120FE49E9
:10272000087048E2FD48008882B24FF4FA714FF415
:10273000DC70FDF71FFEF948008882B24FF4FA7191
:102740004FF4DC70FDF716FEF448008882B24FF4B7
:10275000FA714FF4DC70FDF70DFEF048008882B28C
:102760004FF4AF71481EFDF705FEEC48008882B2B9
:10277000962140F20B20FDF7FDFDE848008882B26B
:102780004FF4FA714FF4DC70FDF7F4FDE348008874
:1027900082B24FF4AF71481EFDF7ECFDDF480088B0
:1027A00082B2962140F20B20FDF7E4FDDB48008861
:1027B00082B240F28A214FF4DC70FDF7DBFD9620F7
:1027C00004F0DEF8D548008882B24FF4FA7140F286
:1027D0009320FDF7CFFDD148008882B24FF4FA7103
:1027E00040F29320FDF7C6FDCC48008882B24FF43A
:1027F000FA7140F29320FDF7BDFDC848008882B20F
:102800004FF4AF7140F2BA20FDF7B4FDC348008821
:1028100082B2962140F20B20FDF7ACFDBF48008844
:1028200082B24FF4FA7140F29F10FDF7A3FDBB484E
:10283000008882B24FF4AF71481EFDF79BFDB74888
:10284000008882B2962140F20B20FDF793FDB34839
:10285000008882B240F28A214FF4DC70FDF78AFDD5
:10286000962004F08DF8AD48008882B24FF4FA71DA
:102870004FF45C70FDF77EFDA848008882B24FF4EB
:1028800096714FF4DC70FDF775FDA448008882B2A4
:1028900096214FF4DC70FDF76DFDA048008882B2F0
:1028A0004FF4C8714FF45C70FDF764FD9B480088DD
:1028B00082B2C82140F23E30FDF75CFD97480088A7
:1028C00082B2C8214FF44470FDF754FD934800884C
:1028D00082B27D214FF43970FDF74CFD8F4800889E
:1028E00082B27D2140F2BA20FDF744FD8B4800887A
:1028F00082B2FA214FF43970FDF73CFDFA2004F062
:102900003FF88648008882B2FA2140F2C710FDF7EE
:1029100031FD8248008882B24FF4C87140F26E20C7
:10292000FDF728FD7D48008882B2C82140F24B2087
:10293000FDF720FD7948008882B2C82140F22A20A4
:10294000FDF718FD7548008882B27D2140F20B200A
:10295000FDF710FD7148008882B27D214FF4E970C7
:10296000FDF708FD6D48008882B2FA2140F20B2085
:10297000FDF700FDFA2004F003F86848008882B2F1
:102980007D2140F25D10FDF7F5FC6448008882B2BD
:102990004FF4FA7140F29F10FDF7ECFC5F4800889D
:1029A00082B240F2771140F25D10FDF7E3FC5B4824
:1029B000008882B27D214FF4DC70FDF7DBFC5748C4
:1029C000008882B24FF4FA7140F20B20FDF7D2FC7E
:1029D0005248008882B240F277114FF4DC70FDF764
:1029E000C9FC4E48008882B27D2140F20B20FDF7E1
:1029F000C1FC4A48008882B240F28A2140F293200A
:102A0000FDF7B8FC4548008882B24FF4FA714FF4E4
:102A10005C70FDF7AFFC4148008882B24FF49671BC
:102A20004FF4DC70FDF7A6FC3C48008882B296218A
:102A30004FF4DC70FDF79EFC3848008882B24FF4FA
:102A4000C8714FF45C70FDF795FC3448008882B281
:102A5000C82140F23E30FDF78DFC3048008882B23C
:102A6000C8214FF44470FDF785FC2C48008882B2E1
:102A70007D214FF43970FDF77DFC2848008882B233
:102A80007D2140F2BA20FDF775FC2448008882B20F
:102A9000FA214FF43970FDF76DFCFA2003F070FF56
:102AA0001E48008882B2FA2140F2C710FDF762FC8E
:102AB0001A48008882B24FF4C87140F26E20FDF7C8
:102AC00059FC1648008882B2C82140F24B20FDF71D
:102AD00051FC1248008882B2C82140F22A20FDF73A
:102AE00049FC0E48008882B27D2140F20B20FDF7A0
:102AF00041FC0A48008882B27D214FF4E970FDF75D
:102B000039FC0648008882B2FA2140F20B20FDF71A
:102B100031FCFA2004E00000A4000020A200002004
:102B200003F02EFF2448008882B2FA2140F25D10A3
:102B3000FDF720FC2048008882B24FF4FA7140F281
:102B40009F10FDF717FC1C48008882B240F27711F5
:102B500040F25D10FDF70EFC1748008882B27D211F
:102B600040F20B20FDF706FC1348008882B24FF4B8
:102B7000FA714FF4DC70FDF7FDFB0F48008882B25C
:102B800040F2771140F25D10FDF7F4FB0A4800882F
:102B900082B27D2140F20B20FDF7ECFB0648008855
:102BA00082B240F28A214FF4DC70FDF7E3FB4FF470
:102BB000AF7003F0E5FEB5E5A200002010B5FDF70B
:102BC0009FFB044604480088401C034908802046B7
:102BD000FDF79AFB10BD00005001002070B50446BF
:102BE0000D46FDF78DFB06461B48006840F00200CD
:102BF0001949086000BF1848006800F0020000286A
:102C0000F9D01648C06820F001001449C8600020BF
:102C1000086002204860601E886201204862084601
:102C2000806940F0010088610D48006820F47F4011
:102C300040EA45300A4908604FF40010094908602D
:102C40000020064988630846C06840F00100C8605B
:102C50003046FDF759FB70BD04E60F4000100340FD
:102C600014E400E000E100E070B50446FDF748FB25
:102C700005461C48006840F004001A49086000BF7F
:102C80001848006800F004000028F9D01648C06811
:102C900020F001001449C86000200860022048604C
:102CA000601E8862012048620846806940F0010089
:102CB00088610E48006820F07F4040F080400B495A
:102CC00008604FF400000A49086000200649886344
:102CD0000846C06840F00100C8602846FDF714FBB4
:102CE00070BD000004E60F400020034014E400E043
:102CF00000E100E010B5FDF703FB04461B48006847
:102D000040F008001949086000BF1848006800F04A
:102D100008000028F9D01648C06820F001001449C6
:102D2000C8600020086002204860001F88620120FF
:102D300048620846806940F0010088610D480068DB
:102D400020F07F4040F000500A49086008200A49FE
:102D500008600020064988630846C06840F001000A
:102D6000C8602046FDF7D0FA10BD000004E60F4011
:102D70000030034020E400E004E100E070B50446C8
:102D80000D46FDF7BDFA06461B48006840F01000EE
:102D90001949086000BF1848006800F010000028BA
:102DA000F9D01648C06820F001001449C86000201E
:102DB000086002204860601E886201204862084660
:102DC000806940F0010088610D48006820F47F00B0
:102DD00040EA45500A49086040200A49086000203E
:102DE000064988630846C06840F00100C860304664
:102DF000FDF78AFA70BD000004E60F400040034072
:102E000044E400E008E100E010B504460B4800F09F
:102E100099FC0B4908680968091D094A1160018875
:102E2000218041886180104601680648814202D1B4
:102E3000403811460860012010BD00000800002045
:102E400004000020C001002010B5FDF759FA044627
:102E50000021064800F0E4FB0548064908600649E1
:102E600008602046FDF750FA10BD00000800002061
:102E700080010020040000200000002031B50F4830
:102E80000068041D0E48844201D1A0F140040D48A1
:102E90000068844201D1002038BDBDF80000074918
:102EA00009680880BDF802000449096848800348A1
:102EB0000460054800F00EFC0120EDE70000002052
:102EC000C0010020040000200800002038B5FFF7F2
:102ED000FBFB044608A30022052100900120FDF71A
:102EE0002EFEFFF7EBFB044605A30B220521009005
:102EF0000120FDF724FE38BD53636F72653A000070
:102F00004C6966653A000000F8B50120D2490870A6
:102F1000D249087001E000F001FCD1480078002897
:102F2000F9D1D04800780028F5D1CF4800780028A2
:102F3000F1D1CE4800780028EDD1CD4805680024B5
:102F40006FE1CB480668741B0220CA494860002024
:102F50000870C9488860C948C749086200200860ED
:102F60000120C88010208880C5A04861C4F1960067
:102F70000A21B0FBF1F0C0498861BE4807C801F0E2
:102F80000BFB0320BF49486000200870BE488860E2
:102F9000BE48BD490862062088800120C880002004
:102FA0008881BBA04861B74807C801F0F5FA042042
:102FB000BA49486000200870B9488860B348B849E9
:102FC0000862052088800320C88000208881ACA08A
:102FD0004861B24807C801F0DFFA0520B1494860EE
:102FE00000200870B0488860A848AF4908620520F2
:102FF00088800420C88000208881A1A04861A94859
:1030000007C801F0C9FA0C20A849486000200870E0
:10301000A74888609D48A649086205208880C88026
:103020000020888196A04861A04807C801F0B4FA42
:103030000620A0494860002008709F48886006204C
:103040009D4988800320C8809CA048619E48B0F9B3
:1030500000001C2813DD9C48B0F9000026280EDA79
:103060009A48B0F90000232809DD9848B0F900001B
:103070005D2804DA002088818448086205E04FF06A
:10308000FF308D498881924808628A4807C801F05C
:1030900083FA0B208F494860002008708E488860B2
:1030A00006208D4988800420C8808CA0486186480D
:1030B000B0F90000262813DD8348B0F9000030285D
:1030C0000EDA8248B0F90000232809DD7F48B0F904
:1030D00000005D2804DA002088816C48086205E061
:1030E0004FF0FF307C49888179480862794807C8E9
:1030F00001F052FA07207C494860002008707B48A4
:1031000088600620794988800520C88078A04861B9
:103110006D48B0F90000302813DD6B48B0F90000AD
:103120003A280EDA6948B0F90000232809DD67481B
:10313000B0F900005D2804DA002088815348086255
:1031400005E04FF0FF3069498881614808626648B0
:1031500007C801F021FA6846FFF756FE08206749C4
:1031600048606748886002200870664864490862C1
:10317000BDF8000000B28880BDF8020000B2C8802F
:103180004FF4FC6088815D4807C801F005FA09200A
:103190005D494860002008705C4888605C485B4975
:1031A0000862012008600520C8800320888059A09B
:1031B00048614648B0F900008861534807C801F0EB
:1031C000EBF90A2054494860002008705348886091
:1031D0004F4852490862012008600520C8800C2031
:1031E00088804FA048613848B0F9000088614A489B
:1031F00007C801F0D1F9BDF8000000B249490880C4
:10320000BDF8020000B24849088013480078012840
:1032100004D000201149087000F00CFA00F07EFA8A
:1032200000BF962C06D2414800684149096888428F
:10323000FFF487AE0020094908703C4800683C490B
:103240000968884204D2022280213A4800F002F93B
:1032500000F0F0F9F8BD0000C0000020C40000201C
:10326000C2000020C5000020C3000020CC000020C8
:10327000C8000020942600203C270020850B000079
:1032800020000000A026002060270020110A000076
:103290002020204D656E752020200000AC260020E7
:1032A00084270020B8260020A82700200C27002013
:1032B000A4280020C4260020CC27002020437562CB
:1032C0006547616D65200000E2000020E0000020FD
:1032D000BD09000000270020802800202050765AD9
:1032E0002020202020200000D0260020F0270020D1
:1032F000204261636B20202020200000DC2600207B
:103300001428002055080000E82600203828002056
:103310003F0B0000583A2000F42600205C280020D3
:10332000593A2000E4000020E6000020B800002008
:10333000B40000202954000010B504460B4800F0EA
:1033400001FA0B4908680968091D094A11600188DA
:10335000218041886180104601680648814202D17F
:10336000403811460860012010BD0000B000002068
:10337000AC0000208826002031B50F480068041DED
:103380000E48844201D1A0F140040D4800688442F7
:1033900001D1002038BDBDF8000007490968088048
:1033A000BDF80200044909684880034804600548E4
:1033B00000F090F90120EDE7A80000208826002009
:1033C000AC000020B000002070B504460D46164643
:1033D0001048008830B91048046031462846FFF78D
:1033E000FDFB10E00B480088012806D10B48046063
:1033F00031462846FFF7C2FC05E009480460314623
:103400002846FFF7BBFC03480088401C01490880A0
:10341000012070BD6C000020440000204800002006
:103420004C00002010B503460C4603480360E0B290
:10343000FEF794F9012010BD5000002010B503469E
:103440000C4603480360E0B2FEF7F8F9012010BD16
:10345000540000202DE9F04780468A461746FCF7C5
:103460004FFF81464D480068142805D14846FCF7B7
:103470004BFF0020BDE8F0874848006840B90020B5
:103480004749C8600846486046490860002448E04B
:10349000002509E005EB4500414901EB0010C0683B
:1034A00000B103E0681CC5B2142DF3DB00BF2C464D
:1034B000002005EB45013A4A02EB0111C86004F116
:1034C0001300142190FBF1F201FB1200C6B20FE0D1
:1034D00006EB4600324901EB0010C06800B909E074
:1034E00006F11300142190FBF1F201FB1200C6B2A9
:1034F000A642EDD100BF06EB4600294901EB0010C2
:10350000406804EB4401264A02EB0111486004EBD9
:103510004400114601EB001006EB460102EB0111DD
:10352000486004EB44001E4901EB00108460002059
:1035300004EB44011A4A02EB0111886100F0C4F85F
:1035400004EB4401164A02EB01114861002004EB30
:10355000440102EB0111C86104EB4400114601EB88
:103560000010876204EB440001EB0010C7622046A4
:1035700001F036FC04EBC40000EB04100A4901EB37
:103580000010C0F8888105480068401C03490860A5
:103590004846FCF7B9FE01206CE700005C00002003
:1035A0000C02002058000020CC050020002001491A
:1035B000086070476000002001480068806870471C
:1035C0005800002010B5FCF76DFE042000F028F92B
:1035D000002407E0012004EB44010E4A02EB011134
:1035E000C860641C142CF5DB0B48FFF73DFBFFF7AC
:1035F00081FBFFF7DBFF00204FF0E02108618861CD
:103600000648006820F07F4040F0604003490860B1
:1036100010BD00000C0200208038010020ED00E009
:1036200070B504460D46FCF73DFE2560FCF73CFEF8
:1036300070BD000010B501201A490968C860FFF785
:10364000BBFF034603F11300142190FBF1F401FBCF
:103650001400C2B20FE002EB4200134901EB00106C
:10366000C06800B909E002F11300142190FBF1F4E5
:1036700001FB1400C2B29A42EDD100BF0B480068B2
:10368000401E0A49086003EB4300074901EB0010A4
:10369000406802EB4201044C04EB0111486000F069
:1036A0003DF810BD580000200C0200205C000020F6
:1036B00010B50446601E4FF0E02148610720086104
:1036C000FCF707FE10BD00000148006870470000CD
:1036D0006000002070B50446FCF7E4FD2068401C43
:1036E00020602068002809DC06480068456800E082
:1036F0006D68286AA042FBD100202862FCF7D4FD47
:1037000070BD00005800002000B502460248006865
:10371000026100F003F800BD5800002000204FF0C7
:10372000E02188614FF08060014908607047000027
:1037300004ED00E00248806A0149096D401A7047B3
:103740000030034010B50446FCF7ACFD2068401E75
:1037500020602068002808DA054800680462FCF749
:10376000A3FDFFF7DBFFFCF79DFDFCF79DFD10BD02
:103770005800002070B504460D461646FCF792FD31
:1037800005E0FCF791FDFFF7C9FFFCF78BFD206812
:1037900010B92868B042F4D02868B04206D1206839
:1037A000401E2060FCF780FD012070BDFCF77CFD11
:1037B0000020FAE770B50446FCF774FD2068401C51
:1037C00020602068012801DD012020602068002899
:1037D00009DC06480068456800E06D68286AA04278
:1037E000FBD100202862FCF75FFD70BD580000206F
:1037F00010B50446FCF756FD2068401E2060206886
:10380000002808DA054800680462FCF74DFDFFF760
:1038100085FFFCF747FDFCF747FD10BD5800002071
:103820001D49096F41F000411B4A11671146096F9C
:1038300041F4006111671146096E21F4F8611166C7
:103840001146096E01F5A86111661146096F21F054
:10385000700111671146096F11671146096F21F454
:10386000005111671146096F41F0804111671146FF
:10387000096F21F0FE5101EB8051116700BF06492D
:10388000096D01F040010029F9D00349096F21F4C5
:103890000061014A1167704700E00F402DE9F843CD
:1038A0000420FE4908700120FD49087001E0FFF77F
:1038B00035FFFC4800780028F9D1FB480078002843
:1038C000F5D1FA4800780028F1D1F94800780028AD
:1038D000EDD100F029FBB6E20120F6494860F64838
:1038E000886000200870F548F3490862032088804A
:1038F0005320C880F248C861782008812820488178
:10390000EC4807C800F048FE0220EE494860EE4847
:10391000886000200870ED48EB490862002088802C
:103920001820C880EA48C8611420088119204881FD
:10393000E44807C800F030FE0320E6494860E64846
:10394000886000200870E148E349086214208880FC
:103950001820C880E148C8611420088119204881D6
:10396000DC4807C800F018FEDD49DE48FEF7BAFD66
:103970004FF000080026B1460024DCE00025D5E029
:10398000C4EB0410D84901EB001005EB850150F899
:10399000310001284FD1B8F1040F4CDA08F10100D1
:1039A00000F0FF08C4EB0412CF4B03EB021205EB4F
:1039B000850302EBC302117AC4EB0412CA4B03EB7A
:1039C000021205EB850302EBC302107901F0AEFE93
:1039D000C4EB0410C44901EB001005EB850100EBBA
:1039E000C100808801B2A8F1010000EB4000BD4A8F
:1039F00002EB800080688180C4EB0410BA4901EBBF
:103A0000001005EB850100EBC100008901B2A8F1AF
:103A1000010000EB400002EB80008068C180A8F14B
:103A2000010000EB4000114601EB800393E8070022
:103A300000F0B2FD78E0C4EB0410AB4901EB0010DC
:103A400005EB850150F8310002286DD1042E6BDAA8
:103A5000701CC6B2C4EB0410A34901EB001005EBC7
:103A6000850100EBC100808801B2F01C00EB400032
:103A70009C4A02EB800080688180C4EB04109A4964
:103A800001EB001005EB850100EBC100008901B2DC
:103A9000F01C00EB400002EB80008068C180F01C4D
:103AA00000EB4000114601EB800393E8070000F0B3
:103AB00073FDC4EB04108C4901EB001005EB85018C
:103AC00000EBC100406901282ED1C4EB04108649E7
:103AD00001EB001005EB850100EBC100008B01B28A
:103AE000F01D00EB40007F4A02EB8000806881807F
:103AF000C4EB04107C4901EB001005EB850100EBE1
:103B0000C100808B01B2F01D00EB400002EB800091
:103B10008068C180F01D00EB4000114601EB80037E
:103B200093E8070000F038FD681CC5B2062DFFF6CB
:103B300027AF601CC4B2022CFFF620AF6B4880F8A0
:103B400000806B4806706B480078032801DA02F0A9
:103B5000E7F8002738E007EB8700674951F82000B5
:103B600001282FD1B9F1030F2CDA09F1010000F07F
:103B7000FF0907EB870001EB8000808801B207F1A5
:103B80000C0000EB4000574A02EB80008068818007
:103B900007EB8700584901EB8000008901B207F16B
:103BA0000C0000EB400002EB80008068C18007F150
:103BB0000C0000EB4000114601EB800393E8070086
:103BC00000F0EAFC781CC7B2032FC4DB494880F838
:103BD00000900520494948600120087048488860E5
:103BE00014204749088119204881464808624FF04F
:103BF000FF3088814448B0F9000019280EDA4248A5
:103C0000B0F90000002809DB4048B0F900000028A6
:103C100004DB3E48B0F90000142803DB3C48007880
:103C2000012807D1002036498880C880334807C85A
:103C300000F0B2FC06203749486001200870364881
:103C40008860142034490881192048812D48086271
:103C50004FF0FF3088812C48B0F9000019280EDAA7
:103C60002948B0F90000002809DB2848B0F9000015
:103C7000142804DB2548B0F90000282803DB244879
:103C80000078022808D11420234988800020C880A9
:103C9000204807C800F080FC07203FE0C00000205B
:103CA000C7000020C2000020C4000020C500002082
:103CB000C300002088260020182700202D050000C2
:103CC000739F0000942600203C270020A90E0000CE
:103CD0009B930000A026002060270020B38F0000E7
:103CE0007C290020C8280020D46C0020ED00002092
:103CF000EE000020EF000020B46E0020B826002067
:103D0000A827002025100000E2000020E00000208D
:103D1000EC000020C4260020CC2700205549486034
:103D20000220087054488860142053490881488153
:103D3000524808624FF0FF3088815148B0F90000C6
:103D40002C2830DB4E48B0F9000054282BDA4D48BF
:103D5000B0F90000032826DB4A48B0F900007B28B0
:103D600021DA4848B0F90000C01E142190FBF1F0A0
:103D700000EB8000032101EB800000B23E49888007
:103D80003F48B0F900002C38142190FBF1F000EB13
:103D900080002C2101EB800000B23749C8803548F3
:103DA00007C800F0F9FB6846FFF72EF808203649EF
:103DB00048603648886003200870354833490862F7
:103DC000BDF8000000B28880BDF8020000B2C880D3
:103DD0004FF4FC6088812C4807C800F0DDFB092007
:103DE0002C494860002008702B4888602B482A49DD
:103DF0000862012008600520C8800020888028A073
:103E00004861284800888861224807C800F0C4FB40
:103E1000BDF8000000B224490880BDF8020000B2DD
:103E200022490880FFF77AFC21480078052809D14B
:103E3000002020490870022280211F48FFF70AFB5A
:103E4000FFF7F8FB00BF1D4800681D49096888425C
:103E500004D21748007804283FF43EAD02228021A6
:103E60001848FFF7F7FA002012490870FFF7E2FB45
:103E7000BDE8F883D0260020F027002025100000A0
:103E8000E2000020E0000020DC26002014280020B2
:103E900055080000E826002038280020850B000087
:103EA000453A200040010020E4000020E600002008
:103EB000C0000020C700002005240000B80000203A
:103EC000B40000202954000010B53222FA2140F23B
:103ED000BA2002F005FD3222FA2140F20B2002F056
:103EE000FFFC3222FA214FF4DC7002F0F9FC32229E
:103EF000FA2140F26E2002F0F3FC3222FA2140F265
:103F0000BA2002F0EDFC3222FA2140F26E2002F0DB
:103F1000E7FC32224FF4FA7140F24B2002F0E0FC51
:103F2000FFF788FB10BD000010B56422244B1A80F7
:103F30000022244B1A70244B1A70244B1A70244A06
:103F40001268244B1A601A461268234B1A6000202C
:103F50000FE000210AE00022C0EB00131F4C04EB2D
:103F6000031301EB810443F83420491C0629F2DBDA
:103F7000401C0228EDDB00201EE0002200EB800345
:103F8000174C44F823207F2200EB800304EB8303CB
:103F90005A6000EB800304EB83039A60052200EB78
:103FA000800304EB8303DA60094A126800EB8003A4
:103FB00004EB83031A61401C0328DEDB10BD000004
:103FC000400100204C0100204D0100204E01002046
:103FD000C80000204401002048010020D46C0020CB
:103FE000B46E0020294A126842F00102274B1A6081
:103FF000264A383A126842F00402244B383B1A60D1
:1040000000BF234A126802F00402002AF9D0214AB4
:10401000126842F010021F4B1A601F4A126822F405
:1040200070221D4B1A601A46126842F480221A60F0
:104030001A1F126822F010021B1F1A60164A103A4B
:10404000126842F01002144B103B1A60134A126EB1
:1040500022F4202242F48012104B1A660022104BE8
:104060001A60C8220F4BC3F82021421E0C4B10339C
:104070001A604A1E0B4BC3F818211A46D2F80021C9
:1040800042F00102C3F800217047000040E60F40F3
:1040900008EA0F40206400402C65004000E00F401B
:1040A00000810240008002400348806820F0400008
:1040B0000149886070470000009002400348806812
:1040C00040F04000014988607047000000900240C5
:1040D000294A126842F00202274B1A60264A383AEF
:1040E000126842F02002244B383B1A6000BF234A7A
:1040F000126802F02002202AF9D1214A126842F007
:1041000004021F4B1A601F4A126822F470621D4B92
:104110001A601A46126842F4A0621A601A1F1268E6
:1041200022F004021B1F1A60164A103A126842F06D
:104130000402144B103B1A60134A126E22F4202220
:1041400042F48012104B1A660022104B1A608C2227
:104150000F4BC3F82021421E0C4B10331A604A1E2D
:104160000B4BC3F818211A46D2F8002142F0010285
:10417000C3F800217047000040E60F4008EA0F40F6
:10418000205402402C55024000E00F4000910240B4
:1041900000900240421E034B1A604A1E024BC3F8B5
:1041A00018217047109102400090024070B54848B5
:1041B0000078042872D147480078401C45490870AF
:1041C00000245DE042480078042800D05AE0002531
:1041D00051E03F480078042800D04EE0C4EB0410C2
:1041E0003D4901EB001005EB850150F83100022834
:1041F0003FD1C4EB0411384A02EB011105EB8502F3
:1042000001EBC201886901F0A7FC0A2001F08AFCD9
:10421000C4EB0411304A02EB011105EB850201EBFE
:10422000C201486901F098FC0A2001F07BFCC4EB54
:104230000410294901EB001005EB850100EBC100DA
:104240004069012815D1C4EB0411234A02EB011186
:1042500005EB850201EBC20002F078F8C4EB041113
:104260001D4A02EB011105EB850201EBC20001F0D2
:10427000F1FF681CC5B2062DABDB00BF601CC4B2E9
:10428000022C9FDB00BF1348007801281DDB0026AD
:1042900014E00F480078042801D011E016E006EB86
:1042A00086000E4951F82000012805D1304601F062
:1042B0001DFE304601F0A6FD701CC6B2032EE8DBE1
:1042C00000BF00200349087000BF00BF70BD0000A0
:1042D000C00000204F010020D46C0020B46E0020EC
:1042E00002480068401C014908607047C80000206F
:1042F0001FB53048006841F2707188420FD32E48D4
:10430000007860B92D48007848B92D48007830B958
:104310002C48007818B92C480078002848D02A4842
:10432000007810BB01AA02A903A8FCF7E3F8FFF785
:1043300001FA04466A46BDF80810BDF80C0001F009
:1043400083FC22490968084420490860194800682C
:10435000401C184908600098FEF790FD20B91C48E1
:104360000068401C1A49086022E001AA02A903A8BB
:10437000FCF7C0F8FFF7DEF904466A46BDF80810FE
:10438000BDF80C0001F0FEFB1049096808440F4914
:10439000086008480068401C064908600098FEF75D
:1043A000EBFF20B90A480068401C0949086000BFBB
:1043B0001FBD0000B8000020C2000020C300002084
:1043C000C4000020C5000020C6000020100100200D
:1043D000300100200F4800680F49096808440D4962
:1043E00008600E48006840430C49086008460068B1
:1043F0000849096808440949086008460068000C33
:10440000098840EA0140054908600846008880B2F2
:1044100070470000940000209000002098000020C9
:10442000074908600968074A1143054A11601146A7
:104430000968054A116002490968044A1160704719
:1044400090000020010000809400002098000020CF
:1044500070B50546002D43D14448FFF773F9444831
:10446000FFF770F92EE04348006800EB4000424936
:1044700001EB8000A0F10C04606800F08FFCE0B953
:1044800020783E49096801EB41013D4A02F82100CC
:1044900060683A49096801EB410102EB810148601B
:1044A000A0683649096801EB410102EB810188608F
:1044B00032480068401C314908602E480068401EA0
:1044C0002C4908602B4800680028CCD12A482D4987
:1044D00008602748FFF7FEF82448FFF7FBF842E0A2
:1044E0002948FFF72FF92248FFF72CF92EE027483B
:1044F000006800EB4000264901EB8000A0F10C04AD
:10450000606800F04BFCE0B920781C49096801EBB9
:1045100041011B4A02F8210060681849096801EB53
:10452000410102EB81014860A0681449096801EB70
:10453000410102EB8101886010480068401C0F496E
:10454000086012480068401E104908600F48006863
:104550000028CCD10E480F4908600548FFF7BAF88B
:104560000948FFF7B7F8012070BD0000680100207E
:104570007C01002060010020F06E00207801002006
:10458000F0710020540100206C0100206401002023
:10459000707000205801002037B52848006830BBF3
:1045A000002226492648FFF7E5F808B900203EBD5D
:1045B000244804682448844204D12148FFF78AF83B
:1045C0000020F4E79DF800002070019860600298D8
:1045D000A06004F10C001B4908601C480068401CE6
:1045E0001A4908601648FFF775F80120DFE7012235
:1045F00012491748FFF7BEF808B90020D7E7154859
:1046000004681548844204D11148FFF763F800207C
:10461000CDE79DF800002070019860600298A060CE
:1046200004F10C000B4908600C480068401C0B4961
:1046300008600748FFF74EF80120B8E77001002036
:1046400068010020540100207070002060010020EB
:104650006C01002058010020F0710020640100204E
:1046600070B541F270703C4908603220FFF74CF899
:10467000FFF72AF8054600263848FFF7B9F8FFF794
:1046800023F837490968401A364908600020FCF7CA
:104690003FFA0AE0FFF718F80446661B4FF0FF33B5
:1046A00031A206210520FCF789F9B6F5FA7FF1D38E
:1046B0000020FCF72DFA2948FFF77CF800F040FBBA
:1046C0002C48FFF795F82C48B0F900002B490880DA
:1046D0002848FFF76FF80020294908601E49086044
:1046E0002849086028490860284908602849086066
:1046F0003F20284908802849088002228021274835
:10470000FEF7A8FE264909680844254908600222E8
:1047100080212448FEF79EFE21490968084420496B
:104720000860012280212048FEF794FE1C49096898
:1047300008441B4908601D48007848B902228021BE
:104740001B48FEF787FE16490968084414490860AB
:10475000FEF770FF70BD0000B80000204000002090
:104760002C01002024010020526573746172746969
:104770006E6700009C000020A0000020A200002026
:10478000300100201001002034010020C80000206A
:10479000C0000020E0000020E200002029540000BA
:1047A0000C01002045220000C1220000A4000020CE
:1047B0001D27000010B5FBF7A3FD044600210648A5
:1047C000FEF72EFF054806490860064908602046A6
:1047D000FBF79AFD10BD0000840000201C2500207E
:1047E000800000207C00002070B505460B48006862
:1047F000441C0B48844201D1A0F10A040948006816
:10480000844201D1002070BD04480068057003484F
:1048100004600548FEF75EFF0120F4E77C000020FD
:104820002625002080000020840000200A4800681F
:104830000A490968884207D2074800880749098859
:10484000401A0A3080B2704703480088034909883B
:10485000401A80B2F7E700007C00002080000020B2
:1048600010B50446144801F0B5FD012C09D11348D8
:1048700001F084FD022012490870032011490870DC
:1048800002E0114801F07AFD104801F077FD032C99
:1048900005D1362002F088F8C02002F0A9F80021E6
:1048A0000846FCF729FA4FF6E07009490880002015
:1048B000FCF72EF910BD0000336F00006E6F000092
:1048C00022000020230000207B6F0000886F000082
:1048D0002000002010B5FEF7F7FE142807D900F0DD
:1048E00009F8FEF763FEFEF7EFFE0149086010BD10
:1048F0002801002070B5CF480078C8BB0122802174
:10490000CD48FEF7A7FD002831D0CC48B0F9000013
:104910004F2813DDC948B0F9000059280EDAC848FD
:10492000B0F90000232809DDC548B0F900005D2872
:1049300004DA02228021C348FEF78CFDBF48B0F99B
:104940000000592813DDBD48B0F9000063280EDAD5
:10495000BB48B0F900002328F4DDB948B0F90000E5
:104960005D28F4DA02228021B748FEF773FD60E18A
:10497000FFE7B0480078012852D101228021AE48DB
:10498000FEF768FD0028F2D0AC48B0F900001C2802
:1049900013DDAA48B0F9000026280EDAA848B0F9BD
:1049A0000000232809DDA648B0F900005D2804DADC
:1049B00002228021A548FEF74DFDA048B0F9000075
:1049C000262813DD9D48B0F9000030280EDA9C48F7
:1049D000B0F90000232809DD9948B0F900005D28EE
:1049E00004DA022280219A48FEF734FD9348B0F998
:1049F00000003028BBDD9148B0F900003A28B6DA53
:104A00008F48B0F900002328B1DD8D48B0F90000CF
:104A10005D28ACDA022280218E48FEF71BFD08E1FA
:104A200084480078022858D1012280218248FEF76C
:104A300011FD00289BD08148B0F900001C2832DD10
:104A40007E48B0F9000026282DDA7D48B0F9000034
:104A5000232828DD7A48B0F900005D2823DA7E4853
:104A6000007868B97D48B0F900007D4908807B482E
:104A7000B0F900007B49088001207749087012E0F6
:104A80007948FEF7B5FE7548B0F90000774908800F
:104A90007448B0F90000714908807348FEF78AFE37
:104AA00000206D4908706548B0F900002628B6DD81
:104AB0006248B0F900003028B1DA6148B0F900006E
:104AC0002328ACDD5E48B0F900005D28A7DA022299
:104AD00080216048FEF7BEFCABE056480078042811
:104AE0009DD1012280215448FEF7B4FC00281AD041
:104AF0005248B0F9000019281ADA5048B0F90000FD
:104B0000002815DB4E48B0F90000002810DB4C48A7
:104B1000B0F9000014280BDA55480078012803D1B9
:104B200000205349087084E001205149087080E05A
:104B30004248B0F9000019281ADA4048B0F90000DC
:104B4000002815DB3E48B0F90000142810DB3C4873
:104B5000B0F9000028280BDA45480078022803D174
:104B600000204349087064E002204149087060E079
:104B70003248B0F900002C2858DB3048B0F900006A
:104B8000542853DA2E48B0F9000003284EDB2C4895
:104B9000B0F900007B2849DA2948B0F90000C01EAE
:104BA000142190FBF1F000EB8000032101EB800069
:104BB000C4B22248B0F900002C38142190FBF1F067
:104BC00000EB80002C2101EB80001330C5B2294896
:104BD0000078042811DA2648007801280DD12648EB
:104BE0000088322809DB2946204600F0D3FD224800
:104BF000008832382049088014E0204800780428D2
:104C000010DA1B48007802280CD11B480088642861
:104C100008DB2946204600F093FB174800886438DB
:104C20001549088000201249087002E00020104950
:104C3000087070BDC0000020F1250000E2000020D7
:104C4000E0000020092F0000354F00008919000006
:104C50009D38000029540000C1000020A20000205F
:104C6000D8000020D40000209C000020A0000020DC
:104C7000EC000020ED00002040010020EE000020AC
:104C800010B5FEF721FD142812D90422802109480D
:104C9000FEF7E0FB30B1FEF789FC07480068401CD6
:104CA00005490860FEF782FCFEF70EFD0349086027
:104CB00010BD0000614600000C0100202C01002006
:104CC00010B5FF23184800684068174C2060204644
:104CD000016800BFC86A984205D2086A18B9086915
:104CE00008B9CB6A0A4649680F4800688842F1D182
:104CF0000D4802600068806A0B4C2468E0620A4834
:104D00000068C06940B9FEF7DFFC074C246864699D
:104D1000001B054C2468A06103480068C069401C62
:104D2000014C2468E06110BD58000020024A108048
:104D3000024A1180704700005001002052010020FB
:104D400010B5FBF7DDFA044600200C49086001218C
:104D50000B48FEF765FC01210A48FEF761FC0121C2
:104D60000948FEF75DFC09480949086009480A49F5
:104D700008602046FBF7C8FA10BD00007001002053
:104D8000680100206C0100207C010020F06E0020F2
:104D900054010020707000205801002010B5024618
:104DA0000D48016801EB41000C4C04EB8000A0F1C0
:104DB0000C030CE0491E5868904201D1012010BD3F
:104DC00001EB4100054C04EB8000A0F10C0300292D
:104DD000F0D10020F3E7000078010020F0710020FE
:104DE00000EBC00101EB0011504A02EB011101F58B
:104DF000A87100EB40024E4B03EB021211604FF022
:104E0000807100EBC00202EB0012484B03EB021270
:104E1000C2F88C114FF0143100EBC00202EB00120B
:104E200003EB0212C2F884114FF0123100EBC00202
:104E300002EB001203EB0212C2F880114FF00331B3
:104E400000EBC00202EB001203EB0212C2F87C116D
:104E50004FF0023100EBC00202EB001203EB021232
:104E6000C2F87811491000EBC00202EB001203EB0C
:104E70000212C2F87411002100EBC00202EB001212
:104E800003EB0212C2F870114FF0113100EBC002B7
:104E900002EB001203EB0212C2F86C114FF010315A
:104EA00000EBC00202EB001203EB0212C2F8681121
:104EB0004FF0093100EBC00202EB001203EB0212CB
:104EC000C2F864114FF0083100EBC00202EB00128F
:104ED00003EB0212C2F860114FF0073100EBC00281
:104EE00002EB001203EB0212C2F85C114FF0063124
:104EF00000EBC00202EB001203EB0212C2F85811E1
:104F00004FF0053100EBC00202EB001203EB02127E
:104F1000C2F854114FF0043100EBC00202EB001252
:104F200003EB0212C2F8501170470000CC050020BC
:104F30000C020020F8B50220CA4908700120CA49B5
:104F4000087001E0FEF7EAFBC84800780028F9D1B4
:104F5000C74800780028F5D1C6480568002463E1F9
:104F6000C4480668741B0220C349486000200870CA
:104F7000C2488860C248C149086200200860012018
:104F8000C88010208880BFA04861C4F196000A2123
:104F9000B0FBF1F0B9498861B74807C8FFF7FCFAE0
:104FA0000320B949486000200870B8488860B848B4
:104FB000B6490862062088800120C88000208881C8
:104FC000B4A04861B04807C8FFF7E6FA0420B44926
:104FD000486000200870B3488860AD48B149086255
:104FE000052088800320C88000208881A5A0486112
:104FF000AB4807C8FFF7D0FA0520AB49486000204E
:105000000870AA488860A248A849086205208880DC
:105010000420C880002088819AA04861A24807C85F
:10502000FFF7BAFA0620A249486000200870A1489C
:10503000886006209F4988800320C8809EA0486120
:10504000A048B0F900001C2813DD9E48B0F900000C
:1050500028280EDA9C48B0F90000232809DD9A4878
:10506000B0F900005D2804DA0020888188480862D1
:1050700005E04FF0FF308F498881944808628C48E2
:1050800007C8FFF789FA0720914948600020087097
:105090009048886006208F4988800420C8808EA0B0
:1050A00048618848B0F90000282813DD8548B0F928
:1050B00000002F280EDA8448B0F90000232809DD0B
:1050C0008148B0F900005D2804DA0020888170482A
:1050D000086205E04FF0FF307E4988817B48086216
:1050E0007B4807C8FFF758FA09207E49486000202E
:1050F00008707D4888607D487B490862012008600F
:105100000520C8800320888079A048616E48B0F9E6
:1051100000008861734807C8FFF73EFA0A20754906
:1051200048600020087074488860704872490862BE
:10513000012008600520C8800C2088806FA048618D
:105140006048B0F9000088616A4807C8FFF724FA90
:1051500008206B4948606B488860022008706A48E4
:10516000684908624FF4FC6088815748B0F9000034
:1051700088805448B0F90000C88064480078C8B9F5
:105180000020634908706846FDF73EFEBDF8000048
:1051900000B25C498880BDF8020000B2C880BDF84A
:1051A000000000B25B490880BDF8020000B25A4915
:1051B00008802AE00120564908700B2057494860B2
:1051C00000200870564888602D4855490862002024
:1051D00008600320C8801020888052A0486152488F
:1051E000B0F9000088614D4807C8FFF7D5F9684657
:1051F000FEF7A2F8BDF8000000B24C490880BDF8E7
:10520000020000B24A49088000BF3D4807C8FFF7C6
:10521000C3F914480078022804D00020124908700D
:10522000FEF708FAFEF77AFA962C06D24148006893
:10523000414909688842FFF493AE00200A4908708A
:1052400033490870314908703A4800683A4909689A
:10525000884204D2022280213848FEF7FBF8FEF78C
:10526000E9F9F8BDC0000020C5000020C4000020FE
:10527000C3000020C8000020942600203C27002006
:10528000850B000020000000A026002060270020E1
:10529000110A00002053657474696E677320000062
:1052A000AC26002084270020B8260020A827002054
:1052B000C4260020CC27002020566F6C756D652019
:1052C00020200000E2000020E0000020BD090000D6
:1052D000D0260020F0270020204261636B20202090
:1052E00020200000E8260020382800203F0B000086
:1052F000583A2000F42600205C280020593A20006B
:10530000DC2600201428002055080000C1000020E1
:10531000C6000020E4000020E60000200027002056
:10532000802800203A000000D4000020D600002091
:10533000D8000020B8000020B4000020295400004C
:1053400070B502460B463F2B01D1002000E0012042
:10535000D41E142594FBF5F10224C0EB0015304E49
:1053600006EB051501EB810645F83640C0EB00144D
:105370002B4D05EB041401EB810504EBC5046260C1
:10538000C0EB0014264D05EB041401EB810504EB82
:10539000C504A3600324C0EB0015214E06EB0515E0
:1053A00001EB810605EBC605EC6002F11404C0EBCD
:1053B00000151B4E06EB051501EB810605EBC60536
:1053C000AC61A3F10F04C0EB0015154E06EB0515FB
:1053D00001EB810605EBC605EC61124C2568C0EBBC
:1053E00000140F4E06EB041401EB810604EBC60417
:1053F00065620025C0EB0014094E06EB041401EBB6
:10540000810604EBC60425620124C0EB0015044E9E
:1054100006EB051501EB810605EBC6056C6170BD59
:10542000D46C0020C800002008B500209549087001
:1054300001209549087001E0FEF770F99348007863
:105440000028F9D1924800780028F5D191480078D9
:105450000028F1D109E102208F4948608F48886017
:10546000002008708E488D4908621F2088804020E7
:10547000C8808C48C861402008814881864807C898
:10548000FFF78AF803208849486088488860002030
:105490000870874885490862052088800820C880F0
:1054A0000020888183A048617F4807C8FFF774F80F
:1054B00004208149486081488860002008707C4849
:1054C0007E490862052088800920C88000208881E4
:1054D00078A04861784807C8FFF75EF8052078494A
:1054E00048600020087077488860062075498880E9
:1054F0000820C88074A048617648B0F900004F28A1
:1055000013DD7448B0F9000059280EDA7248B0F97A
:105510000000232809DD7048B0F900005D2804DA96
:10552000002088816248086205E04FF0FF3065493D
:1055300088816A480862624807C8FFF72DF806208C
:105540006749486000200870664888600620654901
:1055500088800920C88064A048615E48B0F90000D6
:10556000592813DD5B48B0F9000063280EDA5A4869
:10557000B0F90000232809DD5748B0F900005D2884
:1055800004DA002088814A48086205E04FF0FF30C5
:105590005449888151480862514807C8FEF7FCFF0A
:1055A0006846FDF731FC0720524948605248886040
:1055B00002200870514850490862BDF8000000B24E
:1055C0008880BDF8020000B2C8804FF4FC6088817A
:1055D000484807C8FEF7E0FF082049494860002016
:1055E00008704848886048484649086201200860B9
:1055F0000520C8800320888044A048613648B0F95F
:10560000000088613E4807C8FEF7C6FF09204049F0
:105610004860002008703F4888603B483D49086268
:10562000012008600520C8800C2088803AA04861CD
:105630002848B0F900008861354807C8FEF7ACFF7C
:10564000BDF8000000B235490880BDF8020000B284
:10565000334908800B48007820B100200A490870BF
:10566000FDF7E8FFFEF75AF800BF2E4800682E4904
:1056700009688842FFF4EFAE002003490870FDF787
:10568000D9FF08BDC0000020C3000020C2000020D8
:10569000C4000020C5000020942600203C270020E4
:1056A0002D050000F3C40000A02600206027002084
:1056B000110A000020000000AC26002084270020F2
:1056C000B8260020A8270020204D656E75202020D8
:1056D00020200000E2000020E0000020BD090000C2
:1056E000C4260020CC2700202053657474696E679F
:1056F00073200000D0260020F0270020550800006D
:10570000DC260020142800203F0B0000583A20001F
:10571000E826002038280020593A2000E400002024
:10572000E6000020B8000020B400002070B5034659
:105730000A463F2A01D1002000E00120DC1E14258A
:1057400094FBF5F1C0EB00140F4D05EB041401EBD5
:10575000810504EBC50424690C4D2D682C1B322CEB
:1057600010D30B4C24881934094D2C80074C246825
:10577000C0EB0015044E06EB051501EB810605EBA9
:10578000C6052C6170BD0000D46C0020C80000204C
:105790004001002070B502460B463F2B01D100208E
:1057A00000E00120D41E142594FBF5F10124C0EB88
:1057B0000015194E06EB051501EB810645F836403C
:1057C000C0EB0014144D05EB041401EB810504EB50
:1057D000C5046260C0EB00140F4D05EB041401EB2F
:1057E000810504EBC504A3600324C0EB00150A4E39
:1057F00006EB051501EB810605EBC605EC60074CD1
:105800002468C0EB0015044E06EB051501EB81067C
:1058100005EBC6052C6170BDD46C0020C8000020CB
:1058200010B501200249486202480068804710BD57
:10583000001003404400002001212E4A51622E49ED
:105840000968491C2C4A1160002050E000EB40011F
:105850002A4A02EB0111C968F1BB00EB400102EBDF
:105860000111096961B100EB400102EB0111096905
:10587000491E00EB4002214B03EB0212116112E0C2
:1058800000EB40011D4A02EB0111096A59B900EB16
:10589000400102EB0111496A491C00EB4002174B21
:1058A00003EB0212516200EB4001144A02EB0111BA
:1058B000496A08291AD900EB400102EB0111C96AB3
:1058C00051B1002100EB40020C4B03EB021251627C
:1058D00000EB40011A4600E008E002EB0111C96A42
:1058E000491E00EB400203EB0212D162401C142857
:1058F000ACDB704700200340600000200C02002059
:1059000001200149486270470030034010B5012072
:10591000044948620448006880470448006880479A
:1059200010BD000000400340480000204C00002053
:1059300010B504460C4800680C490968884201D13A
:10594000002010BD0948006800F00F000849085CFD
:10595000207006480068401C044908600548FDF7AF
:10596000B9FE0120EDE70000700000207400002067
:105970000C2500207800002010B5FAF7C1FC044681
:1059800010210648FDF74CFE002005490860054936
:1059900008602046FAF7B8FC10BD0000780000202F
:1059A000740000207000002010B504460C48FDF77C
:1059B000C9FE0C4800680C490968401A20F00F0025
:1059C00008B1002010BD0748006800F00F0007492B
:1059D0000C5404480068401C024908600120F1E7AB
:1059E0007800002070000020740000200C250020AA
:1059F0000348006803490968401A80B270470000F4
:105A0000700000207400002010B51448C06B00F036
:105A1000200068B120201149486400F0F1FDFFF733
:105A2000E7FF28B90D48806B20F020000B49886300
:105A30000A48C06B00F0100020B1102007494864EC
:105A400000F0CAFD0548C06B00F0400020B14020C6
:105A50000249486400F0C0FD10BD000000C00040D5
:105A600010B52A48006840F001002849086027481E
:105A70001038006840F00100244910390860FEF732
:105A800099FEFFF779FF2248006B20F001002049C2
:105A900008632B2048621A2088627020C86208467A
:105AA000406B20F03F0048630846406B486308465F
:105AB000806B40F0700088630846006B40F0010086
:105AC00008631448006840F0030012490860114858
:105AD000FC30006840F003000E49FC3108600E48BD
